:100000000C942A000C94EC000C943C000C943C00E2
:100010000C943C000C943C000C943C000C943C0070
:100020000C943C000C943C000C943C000C94D802C2
:100030000C943C000C943C000C943C000C943C0050
:100040000C943C000C943C000C943C000C943C0040
:100050000C943C0011241FBECFE5D8E0DEBFCDBF1D
:1000600020E0A0E6B0E001C01D92A336B207E1F7A0
:100070000E944D010C9421030C94000063E480E085
:100080000E94E80061E480E00E943E0161E481E0BA
:100090000E943E0161E482E00E943E0162E480E051
:1000A0000E943E0162E481E00E943E0162E482E03F
:1000B0000E943E010E94BB020E94B5020E94AB0258
:1000C0000E94A702089580916100811118C061E427
:1000D00082E00E94420162E480E00E9442010E94AC
:1000E000CD028091610090E0019683709078992311
:1000F00024F401978C6F9F6F01968093610080912B
:1001000061008130C1F40E94CD0261E481E00E946F
:10011000460162E481E00E9446018091610090E026
:10012000019683709078992324F401978C6F9F6FC8
:1001300001968093610080916100823021F5809169
:100140006000882341F062E482E00E94420162E4A0
:1001500080E00E94460161E482E00E94460161E481
:1001600080E00E9442010E94CD028091610090E0F7
:10017000019683709078992324F401978C6F9F6F78
:100180000196809361000E94CD0262E482E00E94A9
:10019000460161E481E00E94460162E481E00E9440
:1001A000460180916100833091F490E00196837064
:1001B0009078992324F401978C6F9F6F0196809318
:1001C000610061E480E00E944601109260000895A1
:1001D00040E00E94520108951F920F920FB60F92B5
:1001E00011242F933F934F935F936F937F938F933C
:1001F0009F93AF93BF93EF93FF9380916000811122
:100200002CC080916100811104C084E18093620060
:1002100021C0813051F461E40E94460162E481E032
:100220000E9446010E94D20215C0823059F40E94F9
:10023000D20262E480E00E94460162E482E00E9411
:10024000420108C0833031F484E18093620081E090
:100250008093610081E080936000FF91EF91BF91F6
:10026000AF919F918F917F916F915F914F913F914E
:100270002F910F900FBE0F901F90189541E00E9494
:100280005201089541E00E94DD01089540E00E947E
:10029000DD0108950E94680208950E943E000E94B8
:1002A0006300FDCF623459F118F4613441F00895D0
:1002B000633409F444C0643409F460C00895411102
:1002C0000EC04AB321E030E0B90102C0660F771FCB
:1002D0008A95E2F7CB01809584238ABB089541304B
:1002E00009F06AC04AB321E030E0B90102C0660FEC
:1002F000771F8A95E2F7CB01842B8ABB08954111C1
:100300000EC047B321E030E0B90102C0660F771F8D
:100310008A95E2F7CB018095842387BB089541300D
:1003200009F04AC047B321E030E0B90102C0660FCE
:10033000771F8A95E2F7CB01842B87BB0895411183
:100340000EC044B321E030E0B90102C0660F771F50
:100350008A95E2F7CB018095842384BB08954130D0
:1003600059F544B321E030E0B90102C0660F771FB0
:100370008A95E2F7CB01842B84BB089541110EC00E
:1003800041B321E030E0B90102C0660F771F8A95C2
:10039000E2F7CB018095842381BB0895413061F45D
:1003A00041B321E030E0B90102C0660F771F8A95A2
:1003B000E2F7CB01842B81BB0895623459F118F424
:1003C000613441F00895633409F444C0643409F49D
:1003D00060C0089541110EC04BB321E030E0B90177
:1003E00002C0660F771F8A95E2F7CB0180958423C0
:1003F0008BBB0895413009F06AC04BB321E030E077
:10040000B90102C0660F771F8A95E2F7CB01842BF2
:100410008BBB089541110EC048B321E030E0B90113
:1004200002C0660F771F8A95E2F7CB01809584237F
:1004300088BB0895413009F04AC048B321E030E05C
:10044000B90102C0660F771F8A95E2F7CB01842BB2
:1004500088BB089541110EC045B321E030E0B901D9
:1004600002C0660F771F8A95E2F7CB01809584233F
:1004700085BB0895413059F545B321E030E0B9011D
:1004800002C0660F771F8A95E2F7CB01842B85BBEC
:10049000089541110EC042B321E030E0B90102C01D
:1004A000660F771F8A95E2F7CB018095842382BB84
:1004B0000895413061F442B321E030E0B90102C057
:1004C000660F771F8A95E2F7CB01842B82BB0895D4
:1004D0006234B1F018F4613431F008956334E9F016
:1004E000643441F108954BB321E030E0B90102C01A
:1004F000660F771F8A95E2F7CB0184278BBB08959F
:1005000048B321E030E0B90102C0660F771F8A9539
:10051000E2F7CB01842788BB089545B321E030E0A2
:10052000B90102C0660F771F8A95E2F7CB018427D5
:1005300085BB089545B321E030E0B90102C0660FE4
:10054000771F8A95E2F7CB01842785BB08958FB783
:1005500080688FBF089585B7816085BF85B7826049
:1005600085BF88B7806488BF089589B7816089BFD7
:10057000089582BF089583B783BF8BE00E94B902BC
:10058000089583B7856083BF809162008431E0F372
:10059000089513BE1092620008950E94C1020E9445
:1005A000C90208958BE00E94B9021092620008957A
:1005B0001F920F920FB60F9211242F933F934F93D8
:1005C0005F936F937F938F939F93AF93BF93EF93BB
:1005D000FF938BE00E94B902809162008F5F80934D
:1005E000620080916100813011F08330C9F4809104
:1005F0006000811107C061E070E081E490E00E943A
:100600004A010EC0882361F061E070E081E490E06F
:100610000E944A0161E070E082E490E00E944A0199
:10062000FF91EF91BF91AF919F918F917F916F91CA
:100630005F914F913F912F910F900FBE0F901F90A0
:060640001895F894FFCFAD
:00000001FF
